:020000040800F2
:1000000078090020B9020008913B00082D3800084B
:100010009D3A0008B91400081947000800000000C4
:10002000000000000000000000000000973B0008F6
:10003000BD14000800000000953B0008C93B000803
:10004000D3020008D3020008D3020008D30200083C
:10005000D3020008D3020008D3020008D30200082C
:10006000D3020008D3020008D3020008D30200081C
:10007000D3020008D3020008D3020008D30200080C
:10008000D3020008D3020008D3020008D3020008FC
:10009000D3020008D3020008D3020008D3020008EC
:1000A000D3020008D3020008D3020008D3020008DC
:1000B000A13C0008D3020008D3020008D3020008C4
:1000C000D3020008D3020008D3020008D3020008BC
:1000D000D3020008E9460008F9460008094700086D
:1000E000D3020008D3020008D3020008D30200089C
:1000F000D3020008D3020008D3020008D30200088C
:10010000D3020008D3020008D3020008D30200087B
:10011000D3020008D3020008D3020008D30200086B
:10012000D3020008D3020008D3020008D30200085B
:10013000D3020008D3020008D3020008D30200084B
:10014000D3020008D3020008D3020008D30200083B
:10015000D3020008D3020008D3020008D30200082B
:10016000D3020008D3020008D3020008D30200081B
:10017000D3020008D3020008D302000800000000E8
:10018000D3020008D3020008D3020008D3020008FB
:10019000D3020008D3020008D3020008D3020008EB
:1001A000D3020008D3020008D3020008D3020008DB
:1001B000D3020008D3020008D3020008D3020008CB
:1001C000D3020008D302000800000000D302000898
:1001D000D3020008D3020008D3020008D3020008AB
:1001E000D3020008D3020008D3020008D30200089B
:1001F000D3020008D302000800F002F800F04CF827
:100200000AA090E8000C82448344AAF10107DA4571
:1002100001D100F041F8AFF2090EBAE80F0013F077
:10022000010F18BFFB1A43F001031847D84C000018
:10023000F84C0000103A24BF78C878C1FAD85207A9
:1002400024BF30C830C144BF04680C607047000050
:100250000023002400250026103A28BF78C1FBD8CF
:10026000520728BF30C148BF0B607047662904F0B1
:10027000F084642900F0F880002070471FB504F076
:10028000E3FC00F0D3FB04000020002104F0C6FCD6
:10029000E0601FBD10B510BD00F0E4FC1146FFF793
:1002A000EDFF04F011FB00F002FD03B4FFF7F2FFD5
:1002B00003BC04F067FA000009488047094800477A
:1002C000FEE7FEE7FEE7FEE7FEE7FEE7FEE7FEE706
:1002D000FEE7FEE704480549054A064B7047000063
:1002E0008D3C0008F90100087803002078090020FF
:1002F0007805002078050020704753EA020C00F0D2
:1003000069802DE9F04B4FF00006002B1FBFB3FAB8
:1003100083F503FA05F424FA05F65E4012BF16438E
:10032000B2FA82F502FA05F4C5F120051EBF22FAE1
:1003300005FC44EA0C04203556EA044C4FEA144408
:1003400018BF641C4FF000084FF00009904271EB99
:10035000030C39D3002919BFB1FA81F701FA07F666
:10036000B0FA80F700FA07F6C7F120071EBF20FA9F
:1003700007FC46EA0C062037B6FBF4FCA7EB0507A2
:10038000103F07F01F0BCBF120060CFA0BFB2CFAE9
:1003900006F644BFB3460026202FA4BF5E464FF0AA
:1003A000000B5BEA060C08BF4FF0010B19EB0B09C1
:1003B000ABFB027C48EB0608C01B06FB02CC0BFB28
:1003C00003CC71EB0C01C1E70B460246414648469F
:1003D000BDE8F08B13B54FF000004FF00001AFF314
:1003E0000080BDE81C4070470FB4044910B503AA53
:1003F000029800F009FB10BC5DF814FB20000020FF
:100400002DE9F0410E460446002020622046E168B6
:10041000884730B3252805D0D4E901219047206AC8
:10042000401CF2E7E168204600278847050018D005
:10043000A5F14100192802D820354FF40067324653
:10044000294620462760FFF711FF40B1012804D05C
:10045000F61D26F007060836D8E7361DD6E72846EB
:10046000DAE7206ABDE8F0812DE9F0410646002474
:1004700010687529314616A510D0AFF3008000280A
:1004800002DA404213A507E031688A0701D512A5B8
:1004900002E0490704D511A5012401E0AFF3008073
:1004A00000210A2206F1240709E0B0FBF2FCB0FBB0
:1004B000F2F302FB1C00303078541846491C002827
:1004C000F3D123462A463046BDE8F04100F033B868
:1004D000000000002D0000002B00000020000000A4
:1004E0004FF0000200B5134694469646203922BFCD
:1004F000A0E80C50A0E80C50B1F12001BFF4F7AF18
:10050000090728BFA0E80C5048BF0CC05DF804EBF9
:10051000890028BF40F8042B08BF704748BF20F867
:10052000022B11F0804F18BF00F8012B7047704765
:100530007047704770472DE9F0470D46994692463F
:10054000044600F124080168880604D5E06921F01A
:100550001001216000E00120A84201DD471B00E0FE
:100560000027A1697A1902EB0900081AA061207816
:10057000C00602D42046AFF30080002608E0D4E98C
:1005800001211AF806009047206A401C761C206260
:100590004E45F4DB2078C0060AD52046AFF3008034
:1005A00006E0D4E9012130209047206A401C2062F7
:1005B000381EA7F10107F4DC07E0D4E9012118F89F
:1005C00005009047206A401C2062281EA5F1010505
:1005D000F3DC2046AFF300802078000602D502202D
:1005E000BDE8F0870120FBE770472DE9FF4F0C467F
:1005F0001E464FF0FF378BB0D2E90001DDF8608076
:100600000A908A46C1F30A5505B93D4600210846BD
:100610004FF00000BAF1000F00F4400005DA00EBE3
:1006200080004FF4400101EA50004FEA9059B9F1BF
:10063000010F00DDB9460A9850EA4A000ED044F690
:100640001050A5F2FF3545432F14B8F1000F1ED00E
:100650007542291E1EDDC9F100021CE0B8F1010F30
:100660004FF0000001D0302103E0F24305E02154B7
:10067000401CB042FBDB30460022002121540B9984
:10068000C1F80880C1E900200FB0BDE8F08FBD1BA4
:100690006D1CDEE74A4600DA694206A800F068FAF7
:1006A00006AB93E8070003AB83E8070050460A99BE
:1006B00000F03AFB8DE80700A0F500501F380090CD
:1006C0000398002D0ADD42F21F014A460844002328
:1006D00003A90390684600F0A3FD09E0A0F50050CF
:1006E0004A461F38002303A90390684600F0ADFD79
:1006F0008DE807000004000C03D04FF0FF304108E4
:1007000000E01046B8F1000F03D000220092154619
:100710001EE0751E05D400F08DF9303262556D1E55
:10072000F9D5B3460122084302D000227F1C04E021
:100730002078302801D100227F1E002A099784D01A
:100740001DE0112D07DA00F075F9303262556D1C8D
:1007500050EA0102F5D1084302D00098C8B10EE07A
:100760000021681E05E0235C625C63542254401E35
:10077000491C8142F7DBAB46A81B401E09900020B4
:1007800004F80B000B98099AC0F80880C0E9002B08
:100790007AE711264FF0000857E72DE9F04F884619
:1007A0000446D21D22F0070191B0D1E90001CDE944
:1007B0000A0103F0B3FF02460B98C00F01D02D20B1
:1007C00007E02068810701D52B2002E0202101EA03
:1007D000C000032A099001D0072A05DB03464146E1
:1007E000204600F085F90BE12078800601D5E0690C
:1007F00000E00620B8F1650F814606D0B8F1660F1B
:1008000018D0B8F1670F70D131E00020B9F1110FA5
:10081000009001DB112301E009F101030AAA01A9FB
:100820000CA8FFF7E2FEDDE90C70002609F10105D6
:10083000834647E001204B4600904FF000470AAA4C
:1008400001A90CA8FFF7D1FEDDE90DB00C995D46BA
:10085000002610B909F101000D18B9EB050003D409
:10086000C0F1FF3609F10105A5EB09002BE0B9F154
:10087000010F01DA4FF001090020B9F1110F0090CA
:10088000484601DD112300E003460AAA01A90CA88D
:10089000FFF7ABFEDDE90C704D460026834620785D
:1008A00000070AD4AB4500DA5D4601A8012D04DD3E
:1008B000411911F8011C302907D04F4502DA17F110
:1008C000040F04DA012082460FE06D1EEEE7002FD0
:1008D00002DCED1B3E4403E0781CA84200DD7D1CD9
:1008E000B81B00F1010A4FF000472078000703D43D
:1008F000AA4501DB4FF0FF3A0021B7F1004F0DF19F
:1009000043088DF8431024D002202B23002F01DA56
:100910007F422D230A21021EA0F1010000DC5FB1FD
:1009200097FBF1FC97FBF1F201FB1C7C17460CF1E5
:10093000300C08F801CDEEE7A8F101000370218822
:10094000090501D5452100E06521A0F1010800F865
:10095000011C09980FA9A1EB0807FF1D00B1012098
:10096000411901EBEA70A1693844081A401EA061E0
:100970002078C00602D42046AFF30080099828B141
:10098000D4E901219047206A401C20622078C006EB
:1009900022D52046AFF300801EE0002E04DBB345D5
:1009A00002DD01A8805D00E03020D4E901219047FC
:1009B000206A401C2062761CAAF101005FEA000A4E
:1009C0000AD100F033F8C0680168405CD4E9012125
:1009D0009047206A401C2062281EA5F10105DCDC3E
:1009E00007E0D4E9012118F8010B9047206A401C68
:1009F0002062381EA7F10107F3DC2046AFF3008028
:100A0000032011B041E60000074B70B50D467B4452
:100A100000F05BF80446284600F01CF910B14FF0D6
:100A2000FF3070BD204670BD9B3E000000487047FF
:100A30003803002030B5B0F10A024FEA900E71F190
:100A400000034EEA817EB0EB0E0061EB91014FEAAC
:100A5000101E4EEA017E10EB0E0041EB11114FEA21
:100A6000102E4EEA016E10EB0E0041EB11214FEA01
:100A7000104E4EEA014E10EB0E0041EB11414018B2
:100A800041F100014FEAD00040EA41704FEAD10144
:100A900010EB80054FEA810444EA907444EB0104B2
:100AA0006D1944EB0404521BA3414FF0000348BFEF
:100AB0000A3200D530BD401C41F1000130BD0000BC
:100AC00001694A1C02610878704700B58FB0CDE912
:100AD00001310021059105497944CDE90310114602
:100AE0006846FFF78DFC0FB000BD0000E5FFFFFF7B
:100AF0002DE9F0411F46044603260168072A01F448
:100B0000006004DB08B116A505E016A503E008B1F6
:100B100015A500E015A521F010002060A069C01EF9
:100B2000A0610FB1401EA0612046AFF300804FB11D
:100B3000D4E9012138469047206A401C2062C01C3D
:100B4000206206E0206AFAE7D4E9012115F8010BDA
:100B50009047761EF8D22046AFF30080BDE8F081C2
:100B60004E414E006E616E00494E4600696E660051
:100B70002DE9F047814616468AB0354878440DC8BD
:100B80008DE80D0032487844801C03AC0DC884E821
:100B90000D0041F69B300844372190FBF1F290FBA9
:100BA000F1F5A5F1800501FB12041B3C02D564425E
:100BB000012000E00020DFF898A080460027FA44DA
:100BC000AAF1BE0A0EE0E0070AD03246684607EBFB
:100BD000470101230AEB810100F037FB8DE8070094
:100BE00064107F1C002CEED1194F7F44AE3F19E0FA
:100BF000E80715D007EB04100DF1180A90E80E0075
:100C00008AE80E00C068F04201D198190890324677
:100C1000012306A903A800F018FB03AB83E8070033
:100C20006D10641C002DE3D14FF00103324669467C
:100C3000B8F1000F03A802D000F0F2FA01E000F0D2
:100C400004FBC9E90001C9F808200AB0BDE8F08733
:100C50006C430000007B00F0800070470048704744
:100C6000180300207546FFF7F9FFAE4605006946F8
:100C7000534620F00700854618B020B5FFF72AFB41
:100C8000BDE820404FF000064FF000074FF000088D
:100C90004FF0000B21F00701AC46ACE8C009ACE80E
:100CA000C009ACE8C009ACE8C0098D46704710B572
:100CB0000446AFF300802046BDE81040FFF7F5BAC8
:100CC0004FF0013C50F8042B51F8043B9A4215D1E7
:100CD000A2EB0C03934313EACC130BD150F8042B73
:100CE00051F8043B9A4209D1A2EB0C03934313EA57
:100CF000CC13E7D04FF00000704700BFD01A01BA04
:100D0000B1FA81F101F0180122FA01F0CB40C1F1F2
:100D10002001DBB2C0B2C01A2CFA01F3D11A914300
:100D200011EAC311E6D170475FEA400C08BF91F0A9
:100D3000000F4FEA8C234FEAC12243EA51514FEA98
:100D40001C5018BF00F5F0404FEA300018BF41F0CA
:100D500000415FEA6C5C00F02980BCF1FF3F08BFF6
:100D600040F080407047130C06BF12044FF0100C87
:100D70004FF0000C130E04BF12020CF1080C130FFD
:100D800004BF12010CF1040C930F04BF92000CF18C
:100D9000020CD30F04BF52000CF1010C11464FF0AE
:100DA0000002A0F11F00A0EB0C00704711F0004FF3
:100DB00008BF704731F000413FF4D5AF0B0C06BFC0
:100DC00009044FF0100C4FF0000C0B0E04BF090289
:100DD0000CF1080C0B0F04BF09010CF1040C8B0F74
:100DE00004BF89000CF1020CCB0F04BF49000CF1C9
:100DF000010CCCF12003A0EB0C0022FA03F302FA61
:100E00000CF241EA030100F10100704720F07F4C31
:100E100080EA030023F07F47ACEB070303F57C5324
:100E200000F0004003F1FF032DE980494FEA154B24
:100E300009B44FEA144325EA0B4E24EA03480FF2A3
:100E4000042606EB132749083E785FEA320203FBCB
:100E50000667C7F5000707FB06F64FEA54374FEA67
:100E6000D64606F1020607FB066CCCF1005C4FEAA1
:100E70001C472CEA074C07FB06F40CFB06F504EBB9
:100E800015464FEA961634BF00204FF000404FEA57
:100E9000D13706FB07FC4FEA1C4C0CFB0BF7D21BAF
:100EA00003FB0CF761EB07010CFB0EF7B0EB0740FF
:100EB00072EB17420CFB08F734BFA2EB0742B2EB10
:100EC000074261EB17414FEA0C444FEA910706FBDA
:100ED00007FC4FEA1C4C0CFB0BF7B0EBC74072EB66
:100EE000573203FB0CF734BFA2EBC742B2EBC74249
:100EF00061EB57310CFB0EF7B0EBC70072EB57728A
:100F00000CFB08F734BFA2EBC702B2EBC70261EBE0
:100F10005771039F4FEA816141EA921104EBCC04BF
:100F20004FEAD1374FEA826206FB07FC42EA901291
:100F30004FEA80604FEA1C4C0CFB0BF7D21B03FB03
:100F40000CF761EB07010CFB0EF7B0EB074072EBFF
:100F500017420CFB08F734BFA2EB0742B2EB074283
:100F600061EB17414FEA8C554FEA910704EB9C2443
:100F700006FB07FC4FEA1C4C0CFB0BF7B0EBC74021
:100F800072EB573203FB0CF734BFA2EBC742B2EB54
:100F9000C74261EB57310CFB0EF7B0EBC70072EBA9
:100FA00057720CFB08F734BFA2EBC702B2EBC702C3
:100FB00061EB577115EB4C254FEA816141EA9211C3
:100FC0004FEA82624FEAD13742EA901206FB07FCF1
:100FD00044F100044FEA80604FEA1C4C0CFB0BF715
:100FE000D21B03FB0CF761EB07010CFB0EF7B0EB18
:100FF000074072EB17420CFB08F734BFA2EB074225
:10100000B2EB074261EB174115EB1C154FEA81313A
:1010100041EA92414FEA823242EA90424FEA8030FE
:101020004FEA0C7644F1000448EA03434EEA0B48C9
:101030004FF0000EB2EB080C71EB030724BF6246C1
:1010400039464EEB0E0E4FF0000B0018524149414D
:101050004BEB0B0BB2EB080C71EB03077BF1000BB6
:1010600024BF624639464EEB0E0E4FF0000B0018BF
:10107000524149414BEB0B0BB2EB080C71EB0307F0
:101080007BF1000B24BF624639464EEB0E0E51EA4F
:10109000020718BF46F0010616EB0E7655F1000266
:1010A00054F1000103D5BDE88901BDE80088BDE821
:1010B0008901BDE80048B619524141EB0101A3F195
:1010C0000103704780807F7E7D7C7B7A797877769C
:1010D00076757473727171706F6E6E6D6C6C6B6A15
:1010E0006A696868676666656464636362616160B3
:1010F000605F5F5E5E5D5D5C5C5B5B5A5A59595830
:101100005857575656555555545453535252525199
:10111000515050504F4F4F4E4E4D4D4D4C4C4C4BEF
:101120004B4B4A4A4A494949484848474747474636
:101130004646454545444444444343434342424272
:1011400042414141002B9C4630D477002BD01CB546
:101150004FEA370703B44FF010004FF01001BAF117
:10116000000F06D0BCF1000FDCBF40F0080040F0DB
:1011700008014FF000000FBCBDE810400BF1010B5F
:10118000BBF1010F08BF5FEA170722BF12F101028E
:1011900011F101014FF0004143F1000300F0004064
:1011A00043EA00007047F9D35708D0E746EA0646FD
:1011B00013F1400F4FEA16461FDD13F1200FDFBF7A
:1011C00016430A46002120335B42BED0C3F12007FC
:1011D00046EA064602FA07F74FEA164646EA0706C7
:1011E000C3F1200722FA03F201FA07F721FA03F10B
:1011F0004FF0000342EA0702A7E746EA020646EA82
:1012000006464FEA164646EA0106BCBF46EA0646CF
:10121000360C4FF000034FF000024FF0000194E74E
:101220002DE9804C9A46934670B491E8380007C87F
:1012300031EA400C48BF34EA430C03D5FFF7E6FD22
:10124000FFF780FFF0BCBDE8008C2DE9804C9A468A
:10125000934670B491E8380007C810F0804F08BF7B
:1012600013F0804F03D100F005F8FFF76BFFF0BCDF
:10127000BDE8008C20F07F4780EA030023F07F4C1C
:1012800007EB0C03A3F57C5300F00040A3F1FE0331
:1012900092F0000F00F0B38095F0000F00F077801F
:1012A0002DE901494FEA11404FEA144621EA00486E
:1012B00000FB06FC24EA064708FB06F607FB08F8D5
:1012C00000FB07F718EB06484CEB164C4FEA124BA5
:1012D00018EB07484FEA15464CEB174022EA0B4E35
:1012E0000BFB06FC25EA06470EFB06F607FB0EFE87
:1012F0000BFB07F71EEB064E4CEB164C4FF00006AF
:101300001EEB074E4CEB174B18EB0B0840F100009F
:1013100018EB0E0B58EB000840F100008F1A4FF04D
:1013200000013CBFC943661B14BFB5EB040C002190
:101330003CBFC943F61B4FEA17444EEA8E0E27EA1C
:1013400004454FEA1C4704FB07622CEA074C05FBE7
:1013500007F70CFB05F604FB0CFC16EB074642EB0B
:10136000174216EB0C4642EB1C421BEB060658EBF1
:101370000202414146EA9E0601D5BDE80189B6193F
:10138000524141EB0101A3F10103BDE801894FEA9C
:1013900014454FEA114724EA054621EA074C05FBAC
:1013A00007F406FB07F70CFB06F105FB0CFC11EB41
:1013B000074144EB17444FEA124711EB0C4144EB51
:1013C0001C4422EA074C05FB07F206FB07F70CFB5F
:1013D00006F605FB0CFC16EB074642EB174216EB34
:1013E0000C4642EB1C456A1854F1000148BF704797
:1013F000B619524141EB0101A3F10103704795F089
:10140000000F37D04FEA11424FEA144721EA024653
:1014100024EA074C02FB07F106FB07F70CFB06F476
:1014200002FB0CFC14EB074441EB17414FEA154754
:1014300014EB0C4441EB1C4125EA074C02FB07F579
:1014400006FB07F70CFB06F602FB0CFC16EB074647
:1014500045EB174516EB0C4645EB1C42121951F1B2
:10146000000148BF7047B619524141EB0101A3F199
:10147000010370474FEA14454FEA114724EA054635
:1014800021EA074C05FB07F106FB07F70CFB06F208
:101490004FF0000605FB0CFC12EB074241EB174135
:1014A00012EB0C4251EB1C4148BF7047921841EBC4
:1014B0000101A3F10103704700BFFEE77047000080
:1014C0001CB5044607A103C9CDE900010A2308227F
:1014D0006946064802F050F90D222146034802F001
:1014E00065F81CBDFF0300020004F017780200201D
:1014F00072B600BFFEE7F0B502460C460025002795
:10150000967A45EAE615C6F38010074300230021CA
:10151000CDB1C7B110790343D07843EA0023907965
:1015200043EA0043C3F30C0390790143507941EA45
:101530000021107A41EA0041490889B203EB0140D9
:1015400020600020F0BD4FF0FF30FBE770B58478DD
:1015500025110F4E357004F00F050E4E3570002129
:1015600005792943C57841EA05210B4D2960002200
:1015700085792A43457942EA0522084D2A600023ED
:10158000057A2B43C57943EA0523054D2B6070BDD1
:101590004500002044000020280000202C000020EE
:1015A0003000002010B50449044802F0C5FA044890
:1015B000FFF786FF10BD0000A80000206800002093
:1015C0005800002070B50446A56D00F07BF9064672
:1015D00094F83500022808D08020606500BF002004
:1015E00084F8340000BF012070BD2068006820F03E
:1015F0001600216808602068406920F0800021689A
:101600004861206C08B9A06C28B12068006820F0FF
:101610000800216808602068006820F00100216847
:10162000086010E000F04EF9801B05280BD920203F
:101630006065032084F8350000BF002084F8340082
:1016400000BF0320D0E72068006800F001000028F8
:10165000E8D194F85C103F208840A860012084F80D
:10166000350000BF002084F8340000BF00BFBBE796
:10167000014691F83500022803D0802048650120FA
:101680007047052081F835000868006820F00100E7
:101690000A6810600020F3E7F8B502460B46002107
:1016A00000250024002000BFDEE0012606FA01F537
:1016B0001E6806EA0504AC4272D11E7906F00306E4
:1016C000012E04D01E7906F00306022E13D1906875
:1016D0004F000326BE40B0434F00DE68BE4030439B
:1016E0009060506801268E40B0431E79C6F3001604
:1016F0008E40304350601E7906F00306032E09D059
:10170000D0684F000326BE40B0434F009E68BE40E5
:101710003043D0601E7906F00306022E13D1CF08A5
:1017200002F1200656F827004E07F70E0F26BE409E
:10173000B0434F07FF0E1E69BE403043CF0802F191
:10174000200646F8270010684F000326BE40B0432D
:101750001E7906F003064F00BE40304310605E68FD
:1017600006F44036002E7ED000BF414E366846F467
:1017700080463F4F3E603E46366806F480460096FF
:1017800000BF00BF3B4E8F0856F827008E07370F6B
:101790000F26BE40B043384EB24202D100262EE0A2
:1017A00061E0364EB24201D1012628E0344EB24209
:1017B00001D1022623E0334EB24201D103261EE0BE
:1017C000314EB24201D1042619E0304EB24201D16D
:1017D000052614E02E4EB24201D106260FE02D4E12
:1017E000B24201D107260AE02B4EB24201D10826AF
:1017F00005E02A4EB24201D1092600E00A268F07F1
:101800003F0FBE4030431B4E8F0846F82700244E42
:101810003068A0435E6806F4801606B12043204E6F
:101820003060361D3068A0435E6806F4001606B1CD
:1018300020431B4E361D3060194E361F3068A043C2
:101840005E6806F4003606B12043154E361F306040
:10185000361F3068A0435E6806F4803606B1204328
:101860000F4E083E3060491C1029FFF41EAFF8BD32
:1018700044380240083801400000024000040240A1
:1018800000080240000C0240001002400014024018
:1018900000180240001C02400020024000240240C8
:1018A000083C014010B5426921EA020302EA010442
:1018B00043EA0443836110BD0AB1816101E00B0476
:1018C00083617047014800687047000048000020AD
:1018D00003480068034909780844014908607047D3
:1018E000480000205000002010B5032000F000F94F
:1018F0000F2000F005F800F08DF8002010BD00006A
:1019000070B504460E4800784FF47A71B1FBF0F0E0
:101910000C490968B1FBF0F5284601F0CFF808B191
:10192000012070BD102C07D200222146501E00F06D
:10193000A1F80548046001E00120F2E70020F0E78B
:1019400050000020540000204C0000204178154A2F
:1019500011600178F9B1121D41681160017B09071E
:10196000C27A41EA0261827A41EAC241427B41EA9B
:101970008241827B41EA4241C27B41EA0241427A92
:1019800041EA0221027A41EA420102781143054A02
:101990000832116005E00021024A121D1160121D7B
:1019A0001160704798ED00E000BF00BF00BFBFF3BB
:1019B0005F8F00BF00BF00BF0548006820F4803083
:1019C0000349086000200249703108607047000038
:1019D00024ED00E040F001010D4A11600C4970391E
:1019E000096841F480310A4A703A116000BF00BFB3
:1019F00000BFBFF34F8F00BF00BF00BF00BF00BFDD
:101A000000BFBFF36F8F00BF00BF00BF7047000073
:101A100094ED00E008B500BF0D48006840F080502C
:101A20000B4908600846006800F08050009000BF35
:101A300000BF00BF081D006840F48040091D086019
:101A40000846006800F48040009000BF00BF08BD59
:101A50004038024001460846002809DB00F01F0319
:101A600001229A4043099B0003F1E023C3F80021BF
:101A700000BF70472DE9F05F80460D4616460027EF
:101A800002F064FE074639462A46334601F0070055
:101A9000C0F1070ABAF1040F02D94FF0040A01E0BD
:101AA000C0F1070AD14600F1040ABAF1070F02D2C9
:101AB0004FF0000A01E0A0F1030AD4464FF0010AFA
:101AC0000AFA09FAAAF1010A0AEA020A0AFA0CFA5F
:101AD0004FF0010B0BFA0CFBABF1010B0BEA030B04
:101AE0004AEA0B042146404602F038FEBDE8F09F6A
:101AF00000BF00F00702064B19684FF6FF031940BC
:101B0000044B0B4343EA0221014B196000BF7047AD
:101B10000CED00E00000FA0538B5002400BF2048B5
:101B2000006840F080501E4908600846006800F0D8
:101B30008050009000BF00BF1A48006840F4803019
:101B400018490860FFF7BEFE044607E0FFF7BAFE3B
:101B5000001BB0F57A7F01D9032038BD11484068D9
:101B600000F48030B0F5803FF0D10E48006840F4BA
:101B700000300C490860FFF7A5FE044607E0FFF7B8
:101B8000A1FE001BB0F57A7F01D90320E5E70548E7
:101B9000406800F40030B0F5003FF0D10020DCE7F1
:101BA00040380240007000400348006840F48070F4
:101BB0000149086070470000007000402DE9F843BB
:101BC0000446002600250027A846A946207800F0F4
:101BD000010088B100BFFE48006820F40000FC4905
:101BE000086008460068616B0843F949086000BF57
:101BF000606B08B94FF00108206800F40020B0F5D0
:101C0000002F13D1F2488430006820F44010E16BBB
:101C10000843EF4984310860E06BB0F5801F01D1C3
:101C20004FF00108E06B08B94FF00109206800F49B
:101C30008010B0F5801F13D1E5488430006820F48F
:101C40004000216C0843E24984310860206CB0F503
:101C5000800F01D14FF00108206C08B94FF0010945
:101C6000206800F08070B0F1807F01D14FF0010852
:101C7000207800F02000202870D100BFD4483830F0
:101C8000006840F08050D24938310860084600684A
:101C900000F08050009000BF00BFCE48006840F4C4
:101CA0008070CC490860FFF70DFE064607E0FFF79D
:101CB00009FE801B642802D90320BDE8F883C548CB
:101CC000006800F480700028F1D0C14868300068D6
:101CD00000F4407585B3208E00F44070A8422BD0EC
:101CE000BB486830006820F44075B9486830006827
:101CF00040F48030B649683108600846006820F436
:101D00008030086008460560006800F0010098B166
:101D1000FFF7D8FD064608E0FFF7D4FD801B41F22F
:101D20008831884201D90320C7E7A9486830006894
:101D3000C0F340000028EFD000BF208E00F44070B8
:101D4000B0F5407F0BD1A248006820F4F810A24AF9
:101D5000216B114008439E49086006E010E09C4852
:101D6000006820F4F8109A490860994868300068C3
:101D7000218EC1F30B01084395496831086000BF0B
:101D8000207800F01000102810D100BF9048843057
:101D9000006820F080708E49843108600846006831
:101DA000A16B08438A498431086000BF208800F491
:101DB0008040B0F5804F09D185488830006820F414
:101DC0004030616E0843824988310860208800F401
:101DD0000040B0F5004F09D17D488830006820F4FC
:101DE0004020A16E08437A4988310860206800F4D9
:101DF0008030B0F5803F09D175488830006820F404
:101E00004010E16E0843724988310860206800F490
:101E10000030B0F5003F09D16D488830006820F4EB
:101E20004000216F08436A4988310860207800F03B
:101E30004000402809D166488830006820F003003F
:101E4000616C0843624988310860207800F08000A6
:101E5000802809D15E488830006820F00C00A16C11
:101E600008435B4988310860208800F48070B0F531
:101E7000807F09D156488830006820F03000E16C3E
:101E80000843534988310860208800F40070B0F599
:101E9000007F09D14E488830006820F0C000216DD5
:101EA00008434B4988310860208800F48060B0F511
:101EB000806F09D146488830006820F44070616D19
:101EC0000843434988310860208800F40060B0F579
:101ED000006F09D13E488830006820F44060A16D51
:101EE00008433B4988310860208800F48050B0F5F1
:101EF000805F09D136488830006820F44050E16D99
:101F00000843334988310860208800F40050B0F558
:101F1000005F09D12E488830006820F44040216ECF
:101F200008432B4988310860206800F48000B0F530
:101F3000800F09D126488830006820F08060A16FAA
:101F40000843234988310860206800F40010B0F588
:101F5000001F0FD11E488830006820F00060E16F3C
:101F600008431B4988310860E06FB0F1006F01D170
:101F70004FF00109207800F00800082801D14FF047
:101F80000109206800F48020B0F5802F09D11048A5
:101F90008830006820F04070616F08430C49883138
:101FA0000860206800F40000B0F5000F0AD108486E
:101FB0008830006820F08050D4F88010084304492D
:101FC00088310860206800F08060B0F1806F05E023
:101FD0000838024000700040FFFCFF0F08D1CD48D8
:101FE000006820F00050D4F884100843C949086004
:101FF000206800F00060B0F1006F0AD1C548001FF2
:10200000006820F00070D4F888100843C149091F07
:102010000860206800F08050B0F1805F0AD1BD48B0
:10202000001F006820F08060D4F88C100843B94984
:10203000091F0860B8F1010F05D0206800F000709A
:10204000B0F1007F7ED1B3489038006820F0806006
:10205000B04990390860FFF735FC064606E0FFF707
:1020600031FC801B642801D9032026E6A94890385A
:102070000068C0F3C0600028F1D1207800F00100B2
:10208000B8B1606BA8B9A3480C380068C0F301452B
:10209000A0480C380068C0F303676068800140EA1C
:1020A000054040EA0761207A41EA007099490C39FD
:1020B0000860206800F40020B0F5002F03D1E06B29
:1020C000B0F5801F09D0206800F48010B0F5801FA3
:1020D00024D1206CB0F5800F20D18E480C380068D8
:1020E000C0F301458B480C380068C0F30277606884
:1020F000800140EA0541207B41EA006040EA077028
:1021000084490C3908608348001F006820F01F00D4
:10211000616A491E08437F49091F0860206800F072
:102120008070B0F1807F17D17A480C380068C0F316
:10213000036578480C380068C0F302776068810155
:10214000208A00E036E041EA004040EA056040EACB
:10215000077070490C390860206800F00070B0F119
:10216000007F0DD160688101208A41EA0041207B17
:1021700041EA0061207A41EA007066490C39086042
:1021800064489038006840F0806062499039086087
:10219000FFF798FB064606E0FFF794FB801B6428D8
:1021A00001D9032089E55B4890380068C0F3C0601E
:1021B0000028F1D0B9F1010F7ED15648903800685F
:1021C00020F08050534990390860FFF77BFB0646AA
:1021D00006E0FFF777FB801B642801D903206CE53C
:1021E0004C4890380068C0F340700028F1D1206856
:1021F00000F40020B0F5002F01D1E06B38B1206869
:1022000000F48010B0F5801F22D1206C00BB414843
:1022100008380068C0F301453E4808380068C0F33C
:1022200002776069800140EA0541207E41EA006052
:1022300040EA0770374908390860081D006820F433
:10224000F851A06A401E41EA00203249091F086087
:10225000206800F40010B0F5001F19D1E06FB0F154
:10226000006F15D12B4808380068C0F30365294872
:1022700008380068C0F3027760698101208C41EA68
:10228000004040EA056040EA0770224908390860CA
:10229000207800F00800082820D11E48083800687F
:1022A000C0F303651B4808380068C0F30147606944
:1022B000800140EA074000E02AE040EA0561207F13
:1022C00041EA0070134908390860081D006820F4CD
:1022D0004030E16A08430F49091F08600D489038F3
:1022E000006840F080500B4990390860FFF7EAFA27
:1022F000064606E0FFF7E6FA801B642801D90320B2
:10230000DBE4044890380068C0F340700028F1D046
:102310000020D2E49038024070B504460D460026F5
:102320000CB9012070BD5C48006800F00F00A842A5
:102330000ED25948006820F00F0028435649086023
:102340000846006800F00F00A84201D00120E9E72C
:10235000207800F0020002281DD1207800F004004F
:10236000042805D14D48006840F4E0504B4908600E
:10237000207800F00800082805D14848006840F49B
:102380006040464908604548006820F0F000A168B8
:10239000084342490860207800F0010090B360686B
:1023A000012807D13D4808380068C0F34040A0B973
:1023B0000120B7E76068022807D13848083800686C
:1023C000C0F3406048B90120ACE7344808380068E1
:1023D000C0F3400008B90120A4E73048006820F0AD
:1023E0000300616808432D490860FFF76BFA064651
:1023F00009E0FFF767FA801B41F28831884202D971
:1024000003208FE707E02548006800F00C006168B2
:10241000B0EB810FEDD12048006800F00F00A8421A
:102420000ED91D48006820F00F0028431A490860A3
:102430000846006800F00F00A84201D0012071E7B3
:10244000207800F00400042807D11448006820F424
:10245000E050E168084311490860207800F0080066
:10246000082808D10D48006820F46040216940EA3E
:10247000C1000A49086000F03FF808490968C1F343
:102480000311074A515CC8400649086006480068C5
:10249000FFF736FA002045E7003C024008380240CA
:1024A000564E0008540000204C00002001480068EF
:1024B000704700005400002000B5FFF7F7FF044903
:1024C0000968C1F38221034A515CC84000BD000085
:1024D00008380240664E000800B5FFF7E7FF0449E0
:1024E0000968C1F34231034A515CC84000BD000095
:1024F00008380240664E00082DE9F0470024002508
:102500000026A1462548006800F00C0020B10428F0
:1025100005D008283AD105E0DFF8849039E0DFF8EB
:10252000849036E01D48001F006800F03F041B48FF
:10253000001F006800F4800078B11A481749091F8D
:102540000968C1F38811A0FB0170014622460023EF
:102550003846FDF7D2FE05460EE011480F49091F27
:102560000968C1F38811A0FB0170014622460023CF
:102570003846FDF7C2FE05460848001F0068C0F354
:102580000140401C4600B5FBF6F902E0DFF8109070
:1025900000BF00BF4846BDE8F08700000838024091
:1025A0000024F40000127A00F8B5044600270CB9A4
:1025B0000120F8BD207800F00100002871D0F94812
:1025C000006800F00C0004280DD0F648006800F008
:1025D0000C00082813D1F348001F006800F48000A5
:1025E000B0F5800F0BD1EF4808380068C0F34040C9
:1025F000002869D06068002866D10120D9E700BFB3
:102600006068B0F5803F08D1E6480838006840F4BB
:102610008030E449083908602EE0606868B9E14814
:102620000838006820F48030DE4908390860084620
:10263000006820F4802008601EE06068B0F5A02FDC
:102640000DD1D8480838006840F48020D5490839B1
:1026500008600846006840F4803008600CE0D1480B
:102660000838006820F48030CE49083908600846F0
:10267000006820F48020086000BF606890B1FFF718
:1026800021F9054606E0FFF71DF9401B642801D932
:1026900003208EE7C34808380068C0F34040002894
:1026A000F1D011E0FFF70EF9054606E0FFF70AF951
:1026B000401B642801D903207BE7BA48083800682A
:1026C000C0F340400028F1D1207800F00200022839
:1026D00069D1B448006800F00C0058B1B1480068F6
:1026E00000F00C0008281CD1AE48001F006800F460
:1026F0008000B0B9AB4808380068C0F3400020B192
:10270000E068012801D0012053E7A6480838006896
:1027100020F0F800216940EAC100A24908390860A8
:1027200041E0E06828B39F480838006840F00100A5
:102730009C4908390860FFF7C5F8054606E0FFF731
:10274000C1F8401B022801D9032032E79548083818
:102750000068C0F340000028F1D0924808380068B3
:1027600020F0F800216940EAC1008E49083908606C
:1027700019E08C480838006820F0010089490839C0
:102780000860FFF79FF8054606E0FFF79BF8401B3F
:10279000022801D903200CE7824808380068C0F3FA
:1027A00040000028F1D1207800F00800082836D138
:1027B0006069D0B17B486C30006840F00100794915
:1027C0006C310860FFF77EF8054606E0FFF77AF8FF
:1027D000401B022801D90320EBE672486C300068E8
:1027E000C0F340000028F1D019E06E486C3000685A
:1027F00020F001006B496C310860FFF763F8054673
:1028000006E0FFF75FF8401B022801D90320D0E65D
:1028100064486C300068C0F340000028F1D1207893
:1028200000F00400042874D15E483830006800F0DD
:10283000805080B900BF5B483830006840F080505D
:102840005849383108600846006800F08050009010
:1028500000BF00BF01275448006800F48070B0B981
:102860005148006840F480704F490860FFF72AF82B
:10287000054606E0FFF726F8401B642801D903202F
:1028800097E64948006800F480700028F2D000BF45
:10289000A068012808D143486830006840F0010072
:1028A0004049683108602DE0A06868B93D4868304B
:1028B000006820F001003B49683108600846006864
:1028C00020F0040008601DE0A06805280DD13548FF
:1028D0006830006840F004003249683108600846FA
:1028E000006840F0010008600CE02E486830006885
:1028F00020F001002B49683108600846006820F08C
:102900000400086000BFA068A8B1FEF7DBFF054621
:1029100009E02EE0FEF7D6FF401B41F288318842E5
:1029200001D9032045E61F4868300068C0F3400025
:102930000028EFD013E0FEF7C5FF054608E0FEF7DC
:10294000C1FF401B41F28831884201D9032030E6A3
:10295000144868300068C0F340000028EFD1012F10
:1029600007D110483830006820F080500D493831C8
:102970000860A069002854D00A48006800F00C00E4
:10298000082867D0A06902284CD10648083800689A
:1029900020F08070034908390860FEF793FF054670
:1029A0000BE000000838024000700040FEF78AFF8C
:1029B000401B022801D90320FBE53F480068C0F313
:1029C00040600028F2D1D4E907010843616A40EA77
:1029D00081110122A06AC2EB500041EA00412C2083
:1029E000005D41EA00613020005D41EA007032493B
:1029F000091D0860081F006840F08070091F08600A
:102A0000FEF760FF054606E0FEF75CFF401B02286C
:102A100001D90320CDE528480068C0F340600028B4
:102A2000F2D047E02448006820F080702249086016
:102A3000FEF748FF054606E0FEF744FF401B02286C
:102A400001D90320B5E51C480068C0F340600028A8
:102A5000F2D12FE01848001D0668A069012827D090
:102A600006F48001E069814222D106F03F01206A2C
:102A700081421DD147F6C0703040616AB0EB811FC2
:102A800016D106F440310122A06AC2EB5000B1EB2E
:102A9000004F0DD106F070612C20005DB1EB006F8E
:102AA00006D106F0E0413020005DB1EB007F01D09F
:102AB00001207EE500207CE50038024070B5044628
:102AC0002546681EB0F1807F01D301200FE0681E0B
:102AD0004FF0E02148610F214FF0FF3001F03EFE42
:102AE00000204FF0E021886107200861002070BDC0
:102AF000704770477047000030B502460B4600BF74
:102B000092F83C00012801D1022030BD012082F85A
:102B10003C0000BF022082F83D0010684168106848
:102B20008468214D1068A84203D0204D1068A84247
:102B300003D121F470015868014321F07001186835
:102B4000014310684160184D1068A8421BD01068FE
:102B5000B0F1804F17D0164D1068A84213D0154D14
:102B60001068A8420FD0144D1068A8420BD00F4D2A
:102B70001068A84207D0114D1068A84203D0104D2C
:102B80001068A84205D124F08004986804431068B6
:102B90008460012082F83D0000BF002082F83C00E4
:102BA00000BF00BFB1E70000000001400004014089
:102BB0000004004000080040000C004000400140BC
:102BC0000018004010B504460CB9012010BD94F85F
:102BD0003D0028B9002084F83C00204600F02AF887
:102BE000022084F83D00211D206801F061F80120D9
:102BF00084F8480000BF84F83E0001213F200155C1
:102C000040200155412001554220015543200155E6
:102C100000BF00BF012084F8440045200155462034
:102C200001554720015500BF012084F83D000020D8
:102C3000CCE7000008B50168B1F1804F0DD100BFAD
:102C40000649096841F00101044A1160114609680A
:102C500001F00101009100BF00BF08BD40380240F3
:102C6000014691F83D00012801D001207047022063
:102C700081F83D000868C06840F001000B68D8602A
:102C80001C4B086898421BD00868B0F1804F17D0E1
:102C9000194B0868984213D0184B086898420FD017
:102CA000174B086898420BD0164B0868984207D01B
:102CB000154B0868984203D0144B0868984210D10D
:102CC00008688068124B00EA0302062A0FD0B2F5AA
:102CD000803F0CD00868006840F001000B68186065
:102CE00005E00868006840F001000B6818600020EB
:102CF000BCE7000000000140000400400008004064
:102D0000000C004000040140004001400018004059
:102D1000070001002DE9F04104460D46002700BFE1
:102D200094F83C00012802D10220BDE8F081012086
:102D300084F83C0000BF022084F83D0020688668CB
:102D40003748064026F47F46206886602868502869
:102D500033D00CDC202850D004DC00284BD01028C5
:102D600051D149E0302849D040284CD139E0602881
:102D70002DD0702807D0B0F5805F03D0B0F5005F8C
:102D800041D10DE041E0D5E902136A68206800F006
:102D9000FBFF2068866846F077062068866034E08E
:102DA000D5E902136A68206800F0EEFF20688068A9
:102DB00040F480402168886027E0EA6869682068FC
:102DC00000F0F6FF5021206800F0E9FF1DE0EA68FE
:102DD0006968206800F0FFFF6021206800F0DFFFD5
:102DE00013E0EA686968206800F0E2FF402120688B
:102DF00000F0D5FF09E000BF00BF00BF29682068D0
:102E000000F0CDFF01E0012700BF00BF012084F8E2
:102E10003D0000BF002084F83C0000BF384684E736
:102E200088FFFEFF704710B5044620680069C0F3B4
:102E30004000D8B12068C068C0F34000B0B16FF066
:102E4000020021680861012020772068806900F075
:102E5000030018B12046FFF7E5FF05E0204600F02B
:102E6000BEF8204600F0BCF80020207720680069FA
:102E7000C0F38000D8B12068C068C0F38000B0B152
:102E80006FF00400216808610220207720688069C3
:102E900000F4407018B12046FFF7C4FF05E020465B
:102EA00000F09DF8204600F09BF800202077206875
:102EB0000069C0F3C000D8B12068C068C0F3C0008A
:102EC000B0B16FF008002168086104202077206805
:102ED000C06900F0030018B12046FFF7A3FF05E02A
:102EE000204600F07CF8204600F07AF80020207799
:102EF00020680069C0F30010D8B12068C068C0F332
:102F00000010B0B16FF01000216808610820207730
:102F10002068C06900F4407018B12046FFF782FFB6
:102F200005E0204600F05BF8204600F059F800204C
:102F300020772068006900F0010058B12068C0685F
:102F400000F0010030B16FF00100216808612046F7
:102F500000F047F820680069C0F3C01058B120683D
:102F6000C068C0F3C01030B16FF080002168086104
:102F70002046FFF7BEFD20680069C0F3002058B16D
:102F80002068C068C0F3C01030B16FF48070216851
:102F900008612046FFF7ACFD20680069C0F380108F
:102FA00058B12068C068C0F3801030B16FF04000A5
:102FB00021680861204600F01DF820680069C0F310
:102FC000401058B12068C068C0F3401030B16FF0B5
:102FD0002000216808612046FFF78CFD10BD704776
:102FE000704710B504462068B0F1804F01D1FEF75C
:102FF000D9FA10BD70477047704770472DE9F04708
:1030000004462068C569206806682068876840F61D
:103010000F0005EA0009B9F1000F0CD105F02000FE
:1030200048B106F0200030B1A06E10B12046A16E6C
:103030008847BDE8F087B9F1000F7DD007F00100A7
:1030400018B9C04830400028F7D005F0010058B149
:1030500006F4807040B1012021680862D4F8840031
:1030600040F00100C4F8840005F0020058B107F0F8
:10307000010040B1022021680862D4F8840040F0C9
:103080000400C4F8840005F0040058B107F0010002
:1030900040B1042021680862D4F8840040F00200A6
:1030A000C4F8840005F0080070B106F0200010B9E3
:1030B00007F0010040B1082021680862D4F88400BC
:1030C00040F00800C4F8840005F4006060B106F028
:1030D000806048B14FF4006021680862D4F8840031
:1030E00040F02000C4F88400D4F8840000284BD0BD
:1030F00005F0200038B106F0200020B1A06E10B11C
:103100002046A16E8847D4F884A02068806800F02B
:103110004000402802D00AF0280070B3204600F09A
:1031200031FF2068806800F04000402821D100BFB6
:1031300000BF2168083100E027E051E8001F21F0BE
:1031400040002168083141E80002002AF1D100BFA7
:10315000606F50B17C48616F0865606FFEF788FA58
:1031600090B1606F016D88470EE02046FFF745FF84
:103170000AE02046FFF741FF06E0FFE72046FFF7A1
:103180003CFF0020C4F8840053E7206E01286FD173
:1031900005F0100000286BD006F010000028FAD0CF
:1031A0001020216808622068806800F040004028F4
:1031B0005FD1606F006840681FFA80F8B8F1000FB7
:1031C00055D0B4F85800404551DDA4F85A80606FDE
:1031D000C069B0F5807F3FD000BF00BF216851E8D3
:1031E000001F21F48070226842E800010029F5D117
:1031F00000BF00BF00BF2168083151E8001F21F067
:1032000001002168083141E80002002AF3D100BF23
:1032100000BF00BF2168083151E8001F21F04000C5
:103220002168083141E80002002AF3D100BF2020C4
:10323000C4F880000020206600BF00BF216851E86C
:10324000001F21F01000226842E800010029F5D19A
:1032500000BF606FFEF7B6F902206066B4F8580050
:10326000B4F85A20801A81B22046FFF7C4FEE0E687
:1032700041E034F8580F6188401A1FFA80F86088DE
:10328000583CB8B3B8F1000F34D000BF00BF21687C
:1032900051E8001F21F49070226842E800010029E3
:1032A000F5D100BF00BF00BF2168083151E8001F01
:1032B00021F001002168083141E80002002AF3D121
:1032C00000BF2020C4F8800000202066A06600BF58
:1032D00000BF216851E8001F21F01000226842E879
:1032E00000010029F5D100BF02206066414620465A
:1032F000FFF781FE9DE605F4801050B107F48000D1
:1033000038B14FF48010216808622046FFF774FE40
:103310008FE605F0800040B106F0800028B1E06E35
:1033200010B12046E16E884783E605F0400030B1D9
:1033300006F0400018B1204600F057FE79E600BFC5
:1033400077E60000200100046D3F000810B5044638
:103350000CB9012010BDA06900B100E000BFE06F12
:1033600028B9002084F87800204600F029F82420AD
:10337000E0672068006820F00100216808602046AE
:1033800000F01CFF012800D1E4E7606A10B120467C
:1033900000F035FD2068406820F4904021684860C6
:1033A0002068806820F02A00216888602068006812
:1033B00040F0010021680860204600F09CFDC9E74C
:1033C00010B5AAB00446142125A8FDF789F890216C
:1033D00001A8FDF785F86F49206888424DD140204B
:1033E00001900020129001A8FEF7E8FB08B1FEF75B
:1033F0007FF800BF6848006840F010006649086028
:103400000846006800F01000009000BF00BF00BF39
:1034100061481438006840F002005F4914390860C0
:103420000846006800F00200009000BF00BF4FF4A3
:10343000004025900220269000202790032028900D
:103440000420299025A95548FEF726F9402025900B
:103450000220269000202790032028900720299002
:1034600025A94E48FEF718F9002201212520FEF774
:1034700001FB2520FEF7EEFA89E0494920688842E1
:1034800040D1802001900020139001A8FEF796FB08
:1034900008B1FEF72DF800BF3F48001F006840F458
:1034A00000303D49091F08600846006800F40030FC
:1034B000009000BF00BF00BF37481438006840F0DC
:1034C00001003549143908600846006800F0010021
:1034D000009000BF00BF0C20259002202690002005
:1034E0002790032028900720299025A92D48FEF732
:1034F000D3F8002201212620FEF7BCFA2620FEF791
:10350000A9FA44E028492068884240D180150190FA
:103510000020149001A8FEF751FB08B1FDF7E8FF69
:1035200000BF1D48001F006840F480201A49091F91
:1035300008600846006800F48020009000BF00BFCB
:1035400000BF15481438006840F0020012491439D1
:1035500008600846006800F00200009000BF00BF4D
:103560004FF44060259002202690002027900320F1
:1035700028900720299025A90848FEF78DF80022F9
:1035800001212720FEF776FA2720FEF763FA2AB0FA
:1035900010BD000000100140443802400004024009
:1035A00000440040000002400048004070B504465E
:1035B0000D461646D4F8800020281DD105B10EB95D
:1035C000012070BD002020662068406800F40000E3
:1035D00060B100BF00BF216851E8001F41F080606A
:1035E000226842E800010029F5D100BF3246294691
:1035F000204600F081FFE4E70220E2E770B50446D0
:1036000047492068884261D1464D2878FD285CD121
:103610006878EE2859D1012029460862084601F051
:10362000D1F8414908600846006828B93F48006859
:10363000401C3E49086043E000203C49086039488E
:1036400090ED0E1AB7EEC11AB0EE410B53EC102BF1
:1036500037A0FCF7C9FE4FF480413948FEF722F944
:10366000304890ED0E0AF7EE000AB4EEE00AF1EEF3
:1036700010FA25D290ED0E0AFFEE000AB4EEE00A31
:10368000F1EE10FA1CDD00202E4908840120488448
:103690009FED2D0A084680ED090A9FED2B0A80ED6B
:1036A0000A0A9FED290A80ED0B0A9FED270A80ED9B
:1036B0000C0A9FED250A80ED0D0A24A0FCF794FE6C
:1036C000102218492348FFF771FF27E0224920689C
:1036D00088420ED121480078FF281FD11F4840782A
:1036E000FE281BD11D48FDF731FF01201C49087041
:1036F00014E01C492068884210D11B480078FF283C
:103700000CD11A491848FDF7F6FE1848016818A0B0
:10371000FCF76AFE80210A48FEF7C4F870BD00007D
:1037200000100140A8000020180000201400002014
:103730004D6F746F72506F73202566200A00000071
:1037400000040240680000200000000073746F70E5
:10375000200A000068010020004400400B03002004
:1037600000000020004800405800002040000020D9
:103770004646202564200A002DE9F84F04460E46EF
:1037800017469946E06F20284DD106B117B90120A0
:10379000BDE8F88F0020503460632120E062FEF71E
:1037A00091F8824627806780503CA068B0F5805F22
:1037B00004D1206910B90025B04602E035464FF02B
:1037C00000081DE05346002280212046CDF80090DD
:1037D00000F00CFF08B10320DAE745B9B8F80000A3
:1037E000C0F308002168886208F1020803E0287825
:1037F000216888626D1CB4F85200401EA4F8520083
:10380000B4F852000028DDD1534600224021204662
:10381000CDF8009000F0EAFE08B10320B8E72020C0
:10382000E0670020B4E70220B2E7704700BFFEE780
:103830001FB500200090019002900390FEF7B4F8AD
:1038400001208DF8000000208DF8010001901F205C
:103850008DF8080087208DF8090000208DF80A00F7
:103860008DF80B0001208DF80C008DF80D00002064
:103870008DF80E008DF80F006846FEF767F80420FB
:10388000FEF7A8F81FBD000000B587B0142102A8FC
:10389000FCF726FE00BF2648006840F004002449DB
:1038A00008600846006800F00400019000BF00BFF7
:1038B00000BF0846006840F08000086008460068C5
:1038C00000F08000019000BF00BF00BF0846006804
:1038D00040F0010008600846006800F00100019017
:1038E00000BF00BF00BF0846006840F0020008604B
:1038F0000846006800F00200019000BF00BF0122EE
:1039000003210C48FDF7D8FF002244F28401094846
:10391000FDF7D2FF44F287000290012003900020BF
:103920000490059002A90348FDF7B6FE07B000BD5C
:10393000303802400004024010B5002202211C2051
:10394000FEF798F81C20FEF785F810BD00B587B08B
:103950000020039004900590069000900190029042
:103960004FF080401349086035204860002111481D
:10397000816042F20F71C160002101618161FFF736
:1039800021F908B1FDF7B4FD4FF48050039003A96D
:103990000848FFF7BFF908B1FDF7AAFD0020009025
:1039A000029069460348FFF7A7F808B1FDF7A0FDAC
:1039B00007B000BD1C01002010B50F480F4908607A
:1039C0000F48486000210D488160C16001610C21F1
:1039D000416100218161C1610162002007494862A3
:1039E0000846FFF7B3FC08B1FDF782FD1022054938
:1039F0000248FFF7DBFD10BD001001406801002008
:103A000000093D00A800002010B50D480D490860D0
:103A10000D48486000210B488160C16001610C21A4
:103A2000416100218161C161016200200549486254
:103A30000846FFF78BFC08B1FDF75AFD10BD0000EA
:103A400000440040F001002040420F0010B5104833
:103A5000104908604FF4E130486000210D48816052
:103A6000C16001610C21416100218161C16101627C
:103A70000020084948620846FFF768FC08B1FDF7D6
:103A800037FD0D2204490348FFF790FD10BD0000EB
:103A900000480040780200205800002000BFFEE7E8
:103AA000002303844184A1B9DFED1F0AC0ED090A98
:103AB000DFED1D0AC0ED0A0ADFED1B0AC0ED0B0A9F
:103AC000DFED190AC0ED0C0ADFED170AC0ED0D0A93
:103AD00029E0012927D192B9DFED130AC0ED090AC7
:103AE00080ED0A0ADFED100AC0ED0B0ADFED0E0AC9
:103AF000C0ED0C0ADFED0D0AC0ED0D0A13E0012A3E
:103B000011D1DFED090AC0ED090ADFED070AC0EDAA
:103B10000A0A80ED0B0ADFED060AC0ED0C0ADFEDA4
:103B2000050AC0ED0D0A704700000000CDCC4C3DE9
:103B3000CDCCCC3D0AD7233C70B504460D46114888
:103B400000F060FF012204210F48FDF7B5FE0122BD
:103B500002210D48FDF7B0FE0A23112221460B4831
:103B6000FFF70AFE002202210748FDF7A5FE00220A
:103B700004210548FDF7A0FE102229460348FFF75F
:103B800015FD70BD6800002000040240680100209F
:103B900000BFFEE77047704770B504460D469FEDC5
:103BA000070A002211460648FFF77AFF29462046F9
:103BB000FFF7C2FF0348FDF783FC70BD0000000063
:103BC000680000205800002010B5FDF781FE10BDF0
:103BD00000B593B0342106A8FCF782FC142101A89B
:103BE000FCF77EFCFDF7E0FF00BF2648006840F0D0
:103BF0008050244908600846006800F0805000901A
:103C000000BF00BF00BF2048006840F440401E498C
:103C100008600846006800F44040009000BF00BF04
:103C2000012006904FF4A020079002200C9041053F
:103C30000D9104210E91D8210F9102211091119123
:103C4000129106A8FEF7B0FC08B1FDF751FCFDF794
:103C500063FF08B1FDF74CFC0F2001900220029099
:103C6000002003904FF4A05004904FF48050059032
:103C7000072101A8FEF750FB08B1FDF739FC13B08E
:103C800000BD00004038024000700040034800685A
:103C900040F47000014908607047000088ED00E0C2
:103CA00010B50248FFF7BFF810BD00001C0100204E
:103CB00010B50268294B98420ED0B0F1804F0BD05E
:103CC000274B984208D0274B984205D0264B984264
:103CD00002D0264B984203D122F070024B681A435F
:103CE0001E4B984220D0B0F1804F1DD01C4B984203
:103CF0001AD01C4B984217D01B4B984214D01B4B28
:103D0000984211D01A4B98420ED01A4B98420BD0C1
:103D1000194B984208D0194B984205D0184B98423D
:103D200002D0184B984203D122F44072CB681A4358
:103D300022F080034C6943EA040202608B68C3628C
:103D40000B688362054B984202D0084B984201D120
:103D50000B6903630123436110BD000000000140B3
:103D60000004004000080040000C00400004014036
:103D7000004001400044014000480140001800405C
:103D8000001C00400020004030B50C46816821F442
:103D90007F4142EA032525432943816030BD0A461D
:103DA000816821F0700142F0070319438160704778
:103DB00030B50B461446026A056A25F00105056216
:103DC000816921F0F00141EA041122F00A021A434C
:103DD0008161026230BD30B50B461446056A25F09C
:103DE000100505628169026A21F4704141EA0431DB
:103DF00022F0A00242EA03128161026230BD90F813
:103E0000241001F0010139B10168496821F4003141
:103E1000826A11430268516090F8241001F0020197
:103E2000022907D10168496821F48031C26A11432F
:103E30000268516090F8241001F00401042907D1B0
:103E40000168496821F48021026B114302685160C6
:103E500090F8241001F00801082907D10168496889
:103E600021F40041426B11430268516090F8241024
:103E700001F01001102907D10168896821F48051EF
:103E8000826B11430268916090F8241001F02001C8
:103E9000202907D10168896821F40051C26B1143C0
:103EA0000268916090F8241001F04001402913D17C
:103EB0000168496821F48011026C11430268516065
:103EC000016CB1F5801F07D10168496821F4C00178
:103ED000426C11430268516090F8241001F0800197
:103EE000802907D10168496821F40021826C1143BF
:103EF00002685160704738B504460020C4F8840059
:103F0000FDF7E0FC05462068006800F0080008287E
:103F10000CD16FF07E402B4600224FF40011009030
:103F2000204600F063FB08B1032038BD206800681C
:103F300000F0040004280CD16FF07E402B460022D4
:103F40004FF480010090204600F050FB08B10320A0
:103F5000EBE72020E067C4F8800000202066606660
:103F600000BF84F8780000BF00BFDEE770B50546EB
:103F7000AC6B0020A4F85A00A4F852002046FFF7CA
:103F80003CF870BD00BF00BF026852E8002F22F469
:103F90009071036843E80012002AF5D100BF00BF0A
:103FA00000BF0268083252E8002F22F001010268C7
:103FB000083242E80013002BF3D100BF016E012943
:103FC0000CD100BF00BF026852E8002F22F01001A0
:103FD000036843E80012002AF5D100BF2021C0F891
:103FE0008010002101668166704710B5044600BF4D
:103FF00000BF216851E8001F21F04000226842E81C
:1040000000010029F5D100BF2020E0670020E06614
:104010002046FFF70AFC10BD2DE9F0410446B4F834
:104020005C70D4F88000222858D12068406A86B29B
:10403000656D06EA07002880606D801C6065B4F835
:104040005A00401EA4F85A00B4F85A0000284BD178
:1040500000BF00BF216851E8001F21F49070226862
:1040600042E800010029F5D100BF00BF00BF216870
:10407000083151E8001F21F001002168083141E8B2
:104080000002002AF3D100BF2020C4F880000020E5
:10409000A0666066206E01281CD10020206600BF4B
:1040A00000BF216851E8001F21F01000226842E89B
:1040B00000010029F5D100BF2068C069C0F30010DD
:1040C00010B1102021680862B4F858102046FEF79D
:1040D00092FF09E02046FFF791FA05E02068806929
:1040E00040F0080021688861BDE8F08170B50446A1
:1040F000B4F85C60D4F88000222858D12068406A67
:1041000085B2F0B22840616D0870606D401C60653A
:10411000B4F85A00401EA4F85A00B4F85A00002817
:104120004BD100BF00BF216851E8001F21F49070FF
:10413000226842E800010029F5D100BF00BF00BF9E
:104140002168083151E8001F21F001002168083181
:1041500041E80002002AF3D100BF2020C4F880000B
:104160000020A0666066206E01281CD10020206619
:1041700000BF00BF216851E8001F21F01000226835
:1041800042E800010029F5D100BF2068C069C0F3F2
:10419000001010B1102021680862B4F858102046B1
:1041A000FEF729FF09E02046FFF728FA05E020681E
:1041B000806940F008002168886170BD2DE9F047F2
:1041C00005464FF0000A2969A86808436969084351
:1041D000E96940EA010828680068BC49084040EAEB
:1041E0000800296808602868406820F44050E968A1
:1041F000084329684860D5F81880286A40EA08080A
:104200002868806820F4306040EA080029688860E7
:1042100000BFAF492868884216D1AE48006800F058
:10422000030030B1012808D0022804D0032808D1A7
:1042300005E0012407E0022405E0042403E008244B
:1042400001E0102400BFC9E0A3492868884216D1C4
:10425000A048006800F00C0030B1042808D00828FD
:1042600004D00C2808D105E0002407E0022405E072
:10427000042403E0082401E0102400BFAEE09749C5
:104280002868884216D19348006800F0300030B1A9
:10429000102808D0202804D0302808D105E00024B8
:1042A00007E0022405E0042403E0082401E01024D0
:1042B00000BF93E08A492868884216D18548006883
:1042C00000F0C00030B1402808D0802804D0C028B9
:1042D00008D105E0002407E0022405E0042403E0FF
:1042E000082401E0102400BF78E07E492868884255
:1042F00019D17848006800F4407048B1B0F5807F6B
:104300000AD0B0F5007F05D0B0F5407F08D105E0B8
:10431000002407E0022405E0042403E0082401E06F
:10432000102400BF5AE070492868884219D16948B2
:10433000006800F4406048B1B0F5806F0AD0B0F575
:10434000006F05D0B0F5406F08D105E0012407E00B
:10435000022405E0042403E0082401E0102400BF47
:104360003CE062492868884219D15A48006800F444
:10437000405048B1B0F5805F0AD0B0F5005F05D07D
:10438000B0F5405F08D105E0002407E0022405E015
:10439000042403E0082401E0102400BF1EE0544977
:1043A0002868884219D14B48006800F4404048B161
:1043B000B0F5804F0AD0B0F5004F05D0B0F5404FB2
:1043C00008D105E0002407E0022405E0042403E00E
:1043D000082401E0102400BF00E0102400BFE869B9
:1043E000B0F5004F39D1092C17D2DFE804F00509E8
:1043F0000D160F1616161300FEF75EF8064610E0AF
:10440000FEF76AF806460CE03A4E0AE0FEF774F84A
:10441000064606E04FF4004603E000264FF0010A8E
:1044200000BF00BF86B37000696800EB5100B0FBAD
:10443000F1F7102F0ED3B7F5803F0BD24FF6F07087
:1044400007EA0009C7F3420049EA00092868C0F8F2
:104450000C9034E04FF0010A31E0092C18D2DFE86B
:1044600004F005090D170F1717171400FEF724F8AD
:10447000064611E0FEF730F806460DE01D4E0BE053
:10448000FEF73AF8064607E019E04FF4004603E06D
:1044900000264FF0010A00BF00BF86B1686806EB36
:1044A00050006968B0FBF1F7102F06D3B7F5803FD5
:1044B00003D2B8B22968C86001E04FF0010A0020B9
:1044C000A866E8665046BDE8F0870000F369FFEF94
:1044D0000010014090380240004400400048004075
:1044E000004C0040005000400014014000780040A3
:1044F000007C00400024F40030B503465965A3F861
:104500005820A3F85A200020986600BF9868B0F59C
:10451000805F0AD1186920B940F2FF10A3F85C004F
:1045200020E0FF20A3F85C001CE0986848B91869F7
:1045300018B9FF20A3F85C0014E07F20A3F85C000A
:1045400010E09868B0F1805F09D1186918B97F2030
:10455000A3F85C0006E03F20A3F85C0002E0002026
:10456000A3F85C0000BF0020C3F884002220C3F839
:10457000800000BF00BF1C68083454E8004F44F0BE
:1045800001001C68083444E80005002DF3D100BF89
:104590009868B0F5805F04D1186910B91148986621
:1045A00001E011489866186960B100BF00BF1C683F
:1045B00054E8004F44F490701D6845E80004002C56
:1045C000F5D10CE000BF00BF1C6854E8004F44F078
:1045D00020001D6845E80004002CF5D100BF002034
:1045E00030BD000019400008ED4000082DE9F04101
:1045F00004460D4617469846069E69E0701C002842
:1046000066D0FDF75FF9A0EB0800B04200D83EBBD2
:1046100000BF00BF216851E8001F21F4D07022685C
:1046200042E800010029F5D100BF00BF00BF2168AA
:10463000083151E8001F21F001002168083141E8EC
:104640000002002AF3D100BF2020E067C4F88000F8
:1046500000BF002084F8780000BF0320BDE8F0818F
:104660002068006800F0040088B32068C069C0F3C7
:10467000C02060B34FF400602168086200BF00BF33
:10468000216851E8001F21F4D070226842E800013F
:104690000029F5D100BF00BF00BF2168083151E8F3
:1046A000001F21F001002168083141E80002002AC2
:1046B000F3D100BF2020E067C4F88000C4F8840074
:1046C00000BF002084F8780000BF0320C6E7FFE7A2
:1046D0002068C0692840A84201D1012000E00020E4
:1046E000B8428BD00020B9E710B50248FEF786FC2F
:1046F00010BD00006801002010B50248FEF77EFCE6
:1047000010BD0000F001002010B50248FEF776FC55
:1047100010BD00007802002000BFFEE703B401983E
:104720004100009850EAC12018BF04204A0D18BF6C
:1047300040F0010040F2FF72B2EB515F08BF40F061
:104740000200012808BF052002B070470248006837
:10475000C0F30220704700000CED00E010B5002807
:1047600004DB0A07130E054A135406E00A07140E69
:10477000034A00F00F031B1FD45410BD00E400E0F7
:1047800018ED00E000BF7047F0B505460C46164630
:104790002F4605E014F8011B384600F007F80746DD
:1047A000301EA6F10106F5D13846F0BD024682EA78
:1047B0000100C0B2024B33F8100080EA222070479B
:1047C000564C000810B504460E2221460020FFF783
:1047D000DBFFE189884206D028A0FBF705FE002018
:1047E0002062206A10BDA07800F00F0084F8240039
:1047F000A078C0F3021084F8250094F90B00A062A1
:10480000207B00F0070084F82C00B4F9050000EECE
:10481000100AF8EEC00A9FED221A80EE810ADFED41
:10482000210A20EE200A84ED0D0AB4F9030000EEFF
:10483000100AB8EEC00ADFED1A0A80EE201A84EDE5
:104840000C1AD4F8070000EE100AB8EEC00ADFED2B
:10485000150A20EE200ADFED140A80EE201A84EDFE
:104860000E1AA089C0F3CB0000EE100AB8EE400A81
:1048700084ED0F0A01202062206AB3E75B574152A2
:104880004E494E475D2052656365697665206461D7
:10489000746120435243206572726F72200A0000D7
:1048A00000008043F90FC9400000004713B50C46D3
:1048B0004FF6FF73012269460248FEF75DFF00983C
:1048C0001CBD0000F0010020FEF7B2FFFDF70CF860
:1048D000FFF77EF9FEF7D8FFFFF76EF8FFF794F8C1
:1048E000FFF7B4F8FFF732F8FFF726F800BF00BF74
:1048F00000BF00BF32493348FFF74EF900BF00BF89
:10490000002030490884012048849FED2F0A084682
:1049100080ED090AB2EE040A80ED0A0A9FED2A0A28
:1049200080ED0B0A9FED280A80ED0C0A9FED270A07
:1049300080ED0D0A2648FEF793F940E0254800680F
:104940000A2804DD24A0FBF74FFDFCF7D1FD264823
:104950000078012833D1FF2024490870FE204870D8
:10496000234800780007070E2248007807430846CE
:10497000877021480088C0F307241F48057808463F
:10498000C47005711D480088C0F307241B480578D2
:104990000846447185711A480088C0F307241848F6
:1049A00005780846C471057209220020FFF7ECFE65
:1049B00086B2340AF5B20D484472857200BFBDE775
:1049C000A80000206800002000000000CDCC4C3D75
:1049D0001C010020140000206D6F746F722065723E
:1049E000726F72200A000000000000200003002007
:1049F0004400002046000020340000203800002041
:104A00003C00002010B5044611206061FE2020709B
:104A1000EE20607094ED0C0AB5EEC00AF1EE10FACB
:104A200004D29FED720A84ED0C0A0CE094ED0C0A9E
:104A3000DFED6F0AB4EEE00AF1EE10FA03DD9FED50
:104A40006C0A84ED0C0A94ED0D0AB5EEC00AF1EE85
:104A500010FA04D29FED650A84ED0D0A0CE094ED86
:104A60000D0ADFED630AB4EEE00AF1EE10FA03DDA1
:104A70009FED5F0A84ED0D0A94ED090ADFED5D0AF2
:104A8000B4EEE00AF1EE10FA04D29FED5A0A84ED7A
:104A9000090A0CE094ED090ADFED570AB4EEE00ACA
:104AA000F1EE10FA03DD9FED540A84ED090A94ED4E
:104AB0000A0ADFED520AB4EEE00AF1EE10FA04D26F
:104AC0009FED4E0A84ED0A0A0CE094ED0A0ADFED30
:104AD0004C0AB4EEE00AF1EE10FA03DD9FED480A4D
:104AE00084ED0A0A94ED0B0ADFED460AB4EEE00A03
:104AF000F1EE10FA04D29FED430A84ED0B0A0CE0AC
:104B000094ED0B0ADFED400AB4EEE00AF1EE10FA84
:104B100003DD9FED3D0A84ED0B0A94F82000A17897
:104B200060F30301A17094F82200A17860F30611EC
:104B3000A17094ED0C0A9FED351AC0EE010A9FEDAD
:104B4000340A20EE800ABDEEC00A10EE100A01B24F
:104B5000E01CA4F80B1094ED0D0A9FED2C1AC0EE8A
:104B6000010A9FED2B0A20EE800ABDEEC00A10EE6E
:104B7000100A01B2E01CA4F80D10D4ED0B0A9FED51
:104B8000251A80EE810ADFED220A20EE200ABDEE12
:104B9000C00A10EE100AC4F8070094ED0A0A9FED4F
:104BA0001D1AC0EE010A9FED1C0A20EE800ABDEE20
:104BB000C00A10EE100A01B2E01CA4F8051094ED32
:104BC000090ADFED150A20EE200ABDEEC00A10EE3C
:104BD000100A00B2A4F803000F2221460020FFF7BC
:104BE000D3FDA4F80F00002010BD0000000000005D
:104BF000C1CACC41E1FAFFC2E1FAFF42000049C458
:104C000000004944C00FC9C8C00FC948CDCCCC4131
:104C100000000047F90FC9400000804310B500298B
:104C20000AD00878002807D005487844FCF748F8EF
:104C3000002801D0002010BD0248784410BD0000BB
:104C4000FA020000F20200004FF04070E1EE100A9C
:104C50007047FBF7A2BD0000891112239B32244646
:104C6000AD573665BF74488CC19D5AAFD3BE6CCA70
:104C7000E5DB7EE9F7F88110080193331A22A55687
:104C80002C47B7753E64C99C408DDBBF52AEEDDA50
:104C900064CBFFF976E802218B3010029913266766
:104CA000AF763444BD554AADC3BC588ED19F6EEB30
:104CB000E7FA7CC8F5D983310A2091121803A77747
:104CC0002E66B5543C45CBBD42ACD99E508FEFFB10
:104CD00066EAFDD874C904428D5316619F702004A2
:104CE000A9153227BB364CCEC5DF5EEDD7FC6888F0
:104CF000E1997AABF3BA85520C4397711E60A11407
:104D00002805B3373A26CDDE44CFDFFD56ECE998CF
:104D10006089FBBB72AA06638F7214409D512225E5
:104D2000AB343006B9174EEFC7FE5CCCD5DD6AA9AF
:104D3000E3B8788AF19B87730E6295501C41A335C6
:104D40002A24B1163807CFFF46EEDDDC54CDEBB98F
:104D500062A8F99A708B088481951AA793B62CC221
:104D6000A5D33EE1B7F04008C919522BDB3A644E97
:104D7000ED5F766DFF7C899400859BB712A6ADD25E
:104D800024C3BFF136E0C1184809D33B5A2AE55E77
:104D90006C4FF77D7E6C0AA583B4188691972EE33D
:104DA000A7F23CC0B5D14229CB38500AD91B666F57
:104DB000EF7E744CFD5D8BB502A499961087AFF31E
:104DC00026E2BDD034C1C3394A28D11A580BE77F37
:104DD0006E6EF55C7C4D0CC685D71EE597F4288079
:104DE000A1913AA3B3B2444ACD5B5669DF78600C17
:104DF000E91D722FFB3E8DD604C79FF516E4A990DE
:104E00002081BBB332A2C55A4C4BD7795E68E11CF6
:104E1000680DF33F7A2E0EE787F61CC495D52AA1BC
:104E2000A3B03882B193466BCF7A5448DD59622DD6
:104E3000EB3C700EF91F8FF706E69DD414C5ABB19D
:104E400022A0B9923083C77B4E6AD5585C49E33DB6
:104E50006A2CF11E780F0000000000000000010223
:104E60000304060708090000000001020304000013
:104E700002400000000000A000000000054000000B
:104E8000000000C8000000000C4000000000409C32
:104E900000000000194000000020BCBE000000001F
:104EA00034400000BFC91B8E00000004B540000064
:104EB000504BCFD06607E2CF010000006C410000EC
:104EC0003E8251AADFEEA73401000000D942000063
:104ED000DCB5A0E23A301F97FFFFFFFFB4450000AA
:104EE000FD25A0C8E9A3C14FFFFFFFFFFF3F000062
:104EF0000000008000000000FF3F00000000008074
:104F000000000000404F0008000000205800000092
:104F100034020008984F00085800002020090000C3
:104F2000500200081C00000043000000F8FFFFFFD3
:104F30000C0000000E0000000F0000002E0000001A
:104F40000000000000000000000000000000000061
:104F50000000000000000000000000000000000051
:104F60000000000000000000000000000000000041
:104F70000000000000000000000000000000000031
:104F80000000000000000000000000001000000011
:084F9000010000000024F40000
:04000005080001F9F5
:00000001FF
